:100000000C947B000C94A3000C94A3000C94A3000C
:100010000C94A3000C94A3000C94A3000C94A300D4
:100020000C94A3000C94A3000C94A3000C94A300C4
:100030000C94A3000C9478050C94A3000C94A300DA
:100040000C944D030C94A3000C9453010C942D01BB
:100050000C94A3000C94A3000C94A3000C94A30094
:100060000C9424040C94A300000915091509140923
:100070001509F208150915091509F40815091509D6
:100080000709120910091509150915090E090000BB
:100090000000250028002B0000000000240027009D
:1000A0002A000404040404040404020202020202FA
:1000B000030303030303010204081020408001022C
:1000C0000408102001020408102031393A30303A77
:1000D0003133004E6F762031392032303138000014
:1000E00000000800020100000304070000000000F7
:1000F000000000008B0C11241FBECFEFD8E0DEBF44
:10010000CDBF24E0ACECB2E001C01D92A537B20730
:10011000E1F712E0A0E0B1E0E8EEFAE102C00590FC
:100120000D92AC3CB107D9F710E0CBE7D0E004C0AA
:100130002197FE010E945E0DCA37D107C9F70E94C0
:10014000CA070C94720D0C940000FC01538D448D71
:10015000252F30E0842F90E0821B930B541710F072
:10016000CF960895019708958CEC93E00E94A70123
:1001700021E0892B09F420E0822F0895EF92FF926D
:100180000F931F93CF93DF93EC0181E0888F9B8DBA
:100190008C8D981305C0E889F989808185FD26C07A
:1001A000F62E0B8D10E00F5F1F4F0F731127E02EFF
:1001B0008C8DE8120CC00FB607FCFACFE889F989DC
:1001C000808185FFF5CFCE010E94A402F1CF8B8DF7
:1001D000FE01E80FF11DE35AFF4FF0829FB7F8943C
:1001E0000B8FEA89FB89808180620AC09FB7F894EF
:1001F000EE89FF896083E889F98980818370806452
:1002000080839FBF81E090E0DF91CF911F910F919C
:10021000FF90EF900895CF93DF93EC01888D8823B2
:10022000C9F0EA89FB89808185FD05C0A889B98963
:100230008C9186FD0FC00FB607FCF5CF808185FF3E
:10024000F2CFA889B9898C9185FFEDCFCE010E94AC
:10025000A402E7CFDF91CF9108951F920F920FB6BE
:100260000F9211242F933F934F935F936F937F933C
:100270008F939F93AF93BF93EF93FF938CEC93E097
:100280000E94A402FF91EF91BF91AF919F918F9136
:100290007F916F915F914F913F912F910F900FBE82
:1002A0000F901F9018951F920F920FB60F92112466
:1002B0002F938F939F93EF93FF93E091DC03F09143
:1002C000DD038081E091E203F091E30382FD12C03F
:1002D00090818091E5038F5F8F732091E6038217F1
:1002E00051F0E091E503F0E0E453FC4F958F8093EB
:1002F000E50301C08081FF91EF919F918F912F9134
:100300000F900FBE0F901F901895FC01918D828D5C
:10031000981761F0828DDF01A80FB11D5D968C9159
:10032000928D9F5F9F73928F90E008958FEF9FEF64
:100330000895FC01918D828D981731F0828DE80F20
:10034000F11D858D90E008958FEF9FEF0895FC01DA
:10035000918D228D892F90E0805C9F4F821B9109A7
:100360008F739927089580E090E0892B29F00E94EF
:10037000B40081110C94000008953FB7F894809167
:10038000510390915203A0915303B091540326B5A9
:10039000A89B05C02F3F19F00196A11DB11D3FBFBD
:1003A000BA2FA92F982F8827820F911DA11DB11D4B
:1003B000BC01CD0142E0660F771F881F991F4A9547
:1003C000D1F7089585ED8093BC008091BC0084FD39
:1003D000FCCF1092CB03089540912D03262F30E0DF
:1003E000240F311D21323105DCF42091CB03243060
:1003F000C9F4FC0180E090E0861758F430912D0399
:100400002191DC01A35FBC4FA30FB11D2C9301967A
:10041000F3CF80912D03680F60932D0380E0089542
:1004200081E0089582E00895089508950895E09187
:10043000560380915503E81730F4F0E0EB57FC4F7A
:10044000808190E008958FEF9FEF0895909156037B
:1004500080915503981750F4E92FF0E0EB57FC4FCB
:10046000208130E09F5F9093560302C02FEF3FEF53
:10047000C90108958091550390E020915603821B95
:1004800091090895CF92DF92EF92FF920F931F93FD
:10049000CF93DF937C01CB018A012091610322235A
:1004A00089F0EB016B01C40ED51ECC15DD0569F09A
:1004B0006991D701ED91FC910190F081E02DC70188
:1004C0000995F3CF642F0E94EC01C801DF91CF9111
:1004D0001F910F91FF90EF90DF90CF900895CF93F1
:1004E000DF931F92CDB7DEB769832091610322238A
:1004F000D1F020918403203240F021E030E0FC0173
:100500003383228380E090E015C080916203E82F5E
:10051000F0E0ED59FC4F998190838F5F80936203E7
:100520008093840305C061E0CE0101960E94EC0136
:1005300081E090E00F90DF91CF910895089580E0E1
:1005400090E008950E94640DFC01848DDF01A80FE6
:10055000B11DA35ABF4F2C91848D90E001968F73EB
:100560009927848FA689B7892C93A089B1898C910A
:10057000837080648C93938D848D981306C0028859
:10058000F389E02D80818F7D8083089590E0FC01C8
:10059000E152FF4F2491FC01EA54FF4F3491FC01DA
:1005A000EE55FF4FE491EE2309F43CC0222339F1CC
:1005B000233091F038F42130A9F0223001F584B5D0
:1005C0008F7D12C0273091F02830A1F02430B9F48B
:1005D000809180008F7D03C0809180008F77809311
:1005E00080000DC084B58F7784BD09C08091B000B4
:1005F0008F7703C08091B0008F7D8093B000F0E0D2
:10060000EE0FFF1FE257FF4FA591B4919FB7F894EB
:10061000611104C08C913095382302C0EC913E2BBF
:100620003C939FBF08958F929F92AF92BF92CF92BB
:10063000DF92EF92FF926B017C010E94BD014B01A2
:100640005C01C114D104E104F104F1F00E94BD0188
:10065000DC01CB0188199909AA09BB09883E93409E
:10066000A105B10570F321E0C21AD108E108F10833
:1006700088EE880E83E0981EA11CB11CC114D10421
:10068000E104F10419F7DDCFFF90EF90DF90CF90F8
:10069000BF90AF909F908F9008951F920F920FB6CA
:1006A0000F9211242F933F938F939F93AF93BF93F8
:1006B0008091D2029091D302A091D402B091D50240
:1006C0003091500323E0230F2D3720F40196A11D14
:1006D000B11D05C026E8230F0296A11DB11D209370
:1006E00050038093D2029093D302A093D402B0938C
:1006F000D5028091510390915203A0915303B09180
:1007000054030196A11DB11D809351039093520390
:10071000A0935303B0935403BF91AF919F918F91D6
:100720003F912F910F900FBE0F901F901895CF9271
:10073000DF92EF92FF920F931F93CF93DF93EC0121
:1007400081E08093610388E68093830310926203C3
:100750001092840360E089E694E00E946F020E9498
:10076000200767E088E60E94DE0610925603809319
:10077000550389E694E00E9426028F77982F929580
:100780009F701AEF082F919F000D112489E694E0C5
:100790000E9426029C01332794E0359527959A956F
:1007A000E1F7F82E129FF00C112489E694E00E94E4
:1007B00026029C01332744E0359527954A95E1F7B9
:1007C000E82E129FE00C112489E694E00E94260294
:1007D00089E694E00E9426029C01332754E0359577
:1007E00027955A95E1F7D82E129FD00C112489E64F
:1007F00094E00E9426029C01332764E035952795FA
:100800006A95E1F7C82E129FC00C112489E694E086
:100810000E9426029C01332774E0359527957A952E
:10082000E1F7129F800D11248883C982DA82EB825E
:10083000FC820D83CE01DF91CF911F910F91FF902C
:10084000EF90DF90CF9008951F920F920FB60F9206
:1008500011242F933F934F935F936F937F938F93C5
:100860009F93AF93BF93EF93FF938091B900887FDD
:10087000803609F49CC068F5883209F45BC090F4B6
:10088000803109F454C038F4882309F4F6C0883064
:1008900009F44DC0F6C0883109F44CC0803209F427
:1008A0005DC0EFC0803409F468C048F4803309F4B7
:1008B00055C0883309F0E5C08093C903D8C080359E
:1008C00009F44FC0883509F45DC0883409F0D9C0F7
:1008D000D6C0883909F4C7C0A8F4883709F467C0BE
:1008E00038F4883609F463C0803709F460C0C9C0A1
:1008F000883809F4B8C0803909F45FC0803809F03D
:10090000C0C05BC0803B09F486C038F4803A09F46B
:1009100066C0883A09F47FC0B4C0803C09F4A7C01F
:10092000883C09F4A4C0883B09F48AC0AAC080911D
:10093000C60310C09091C8038091C703981770F543
:10094000E091C80381E08E0F8093C803F0E0EB557F
:10095000FC4F80818093BB0085EC86C08093C903E7
:100960008EC0E091C80381E08E0F8093C803809110
:10097000BB00F0E0EB55FC4F80839091C803809161
:10098000C7036EC0E091C80381E08E0F8093C80357
:100990008091BB00F0E0EB55FC4F80838091CA034F
:1009A00081116DC081E08093C50384EA61C083E05A
:1009B0008093CB0310924F03CFCF80914F038032AF
:1009C00008F051C0E0914F0381E08E0F80934F03F8
:1009D0008091BB00F0E0E15DFC4F8083BDCF85ECF2
:1009E0008093BC001092CB0380914F03803230F48F
:1009F000E0914F03F0E0E15DFC4F108260914F0306
:100A000070E0E091CC02F091CD028FE293E0099585
:100A100010924F0336C084E08093CB0310922E03D4
:100A200010922D03E091CE02F091CF0209958091B2
:100A30002D03811105C081E080932D0310920D03D9
:100A4000E0912E0381E08E0F80932E03F0E0E35FB0
:100A5000FC4F80818093BB0090912E0380912D03E9
:100A6000981708F479CF85E88093BC000AC085EC1C
:100A70008093BC001092CB0304C01092C9030E9463
:100A8000E201FF91EF91BF91AF919F918F917F9183
:100A90006F915F914F913F912F910F900FBE0F90EB
:100AA0001F901895CF92DF92EF92FF920F931F93B2
:100AB000CF93DF93EB017B0129E0E20EF11C8B0168
:100AC0006C01C61AD70AC601800F911F0E941A0D29
:100AD000F80181938F01EE15FF05A9F7CE01DF9193
:100AE000CF911F910F91FF90EF90DF90CF900895DD
:100AF0001F920F920FB60F9211248F939F938091A4
:100B0000D0029091D102909385008093840081E07F
:100B10008093D7029F918F910F900FBE0F901F90DF
:100B20001895CF93DF930E94CE068AE092E00E9450
:100B30008F07C7E5D3E088810E947C078EE791E0AC
:100B40000E948F078D810E947C078BE192E00E94BA
:100B50008F078E810E947C078BE192E00E948F07B5
:100B60008F8198850E94910785E891E00E948F0708
:100B70008B810E947C078BE192E00E948F078A8123
:100B80000E9483078CE891E0DF91CF910C94D2060C
:100B9000FF920F931F93CF93DF93CDB7DEB72F97BD
:100BA0000FB6F894DEBF0FBECDBFCE010A960E94ED
:100BB000970301E010E0F02E80916003BE016F5FAB
:100BC0007F4F282F209FC001219F900D11240E944C
:100BD000520568EC70E080E090E00E941303898188
:100BE00081508E3F08F047C08A8590E08053984F2F
:100BF000288539852817390718F48DE192E03DC022
:100C000082179307B8F028173907C9F58B859F819C
:100C1000981718F480E392E030C0891758F09813C1
:100C20002EC08C859E81981718F484E492E025C02C
:100C3000891718F40093D60228C0981320C08D8518
:100C40009C81981718F486E592E017C0891758F030
:100C5000981315C08E859B81981718F489E692E049
:100C60000CC0891718F4F092D6020FC0981307C071
:100C70008EE792E002C083EA92E00E94D2060F5F04
:100C80001F4F0B30110509F096CF2F960FB6F89431
:100C9000DEBF0FBECDBFDF91CF911F910F91FF90AF
:100CA0000895CF92DF92EF92FF920F931F93CF930D
:100CB000DF936C017A018B01C0E0D0E0CE15DF0537
:100CC00081F0D8016D918D01D601ED91FC910190DB
:100CD000F081E02DC6010995892B11F02196EECF08
:100CE0007E01C701DF91CF911F910F91FF90EF908F
:100CF000DF90CF900895009769F0FC0101900020EB
:100D0000E9F73197AF01481B590BBC018CEC93E01C
:100D10000C94510680E090E008958F929F92AF92DC
:100D2000BF920F931F93CF93DF93CDB7DEB7A197F9
:100D30000FB6F894DEBF0FBECDBF19A2423008F443
:100D40004AE08E010F5D1F4F842E912CA12CB12CF7
:100D5000A50194010E943C0DE62FB901CA01015082
:100D60001109EA3014F4E05D01C0E95CD801EC93AC
:100D7000232B242B252B61F7C8010E947B06A1960B
:100D80000FB6F894DEBF0FBECDBFDF91CF911F919C
:100D90000F91BF90AF909F908F90089588EC92E054
:100DA0000C947B06CF93DF930E947B06EC010E949C
:100DB000CE068C0F9D1FDF91CF9108959091CB03AC
:100DC0009111FCCF91E09093CB039093CA032FEF46
:100DD0002093C9031092C803260F2093C703909352
:100DE000C6039091C603880F892B8093C603809118
:100DF000C503813061F41092C5038091C6038093CE
:100E0000BB008091BC0083FDF8CF85EC01C085EE6E
:100E10008093BC008091CB038130E1F38091C803C3
:100E2000861710F46091C803A5EAB3E0E5E8F3E0A3
:100E300080E0861721F09D9191938F5FFACF0895FE
:100E400030918403313208F04BC08091CB03811183
:100E5000FCCF9091830322E02093CB0321E02093E9
:100E6000CA032FEF2093C9031092C8033093C7031E
:100E7000E3E6F3E0A5EAB3E020E0321721F0419188
:100E80004D932F5FFACF1092C6032091C603990F9E
:100E9000922B9093C6039091C503913061F4109208
:100EA000C5039091C6039093BB009091BC0093FD45
:100EB000F8CF95EC01C095EE9093BC009091CB03D8
:100EC0009230E1F39091C9039F3F79F08091C9037B
:100ED000803241F08091C903803331F084E005C055
:100EE00081E003C082E001C083E0109262031092AF
:100EF0008403109261030895682F70E080E090E011
:100F00004AE00C948D06CF93DF930E947C07EC019E
:100F10000E94CE068C0F9D1FDF91CF9108950C94F7
:100F20007B06BC0180E090E04AE00C948D06909135
:100F3000600367E573E0899FC00111240E94520598
:100F400068EC70E080E090E00E941303089581E077
:100F50008093610388E6809383031092620310926A
:100F600084036FE089E694E00E946F020E942007EC
:100F700061E088E60E94DE061092560380935503D6
:100F800089E694E00E9426020895682F8CEC93E095
:100F90000C94BE00CF93DF93CDB7DEB7CA55D1090D
:100FA0000FB6F894DEBF0FBECDBF789484B58260D3
:100FB00084BD84B5816084BD85B5826085BD85B5FD
:100FC000816085BD80916E00816080936E0010927B
:100FD00081008091810082608093810080918100F6
:100FE0008160809381008091800081608093800087
:100FF0008091B10084608093B1008091B0008160E5
:101000008093B00080917A00846080937A00809110
:101010007A00826080937A0080917A008160809368
:101020007A0080917A00806880937A001092C100E3
:10103000E9EBF0E02491E5EAF0E08491882399F06F
:1010400090E0880F991FFC01E856FF4FA591B491DD
:10105000FC01E257FF4F859194918FB7F894EC9182
:10106000E22BEC938FBFF8941092800010928100D5
:1010700082EB96E09093D1028093D002909385000A
:1010800080938400809181008460809381008091AE
:101090006F00816080936F00789489E08093600393
:1010A000E091DC03F091DD0382E08083E091DC03DA
:1010B000F091DD031082E091D803F091D903108202
:1010C000E091DA03F091DB0380E180831092E40386
:1010D000E091E003F091E10386E08083E091DE039C
:1010E000F091DF03808180618083E091DE03F091E5
:1010F000DF03808188608083E091DE03F091DF036D
:10110000808180688083E091DE03F091DF0380813D
:101110008F7D808384E291E00E94D20660ED77E0CB
:1011200080E090E00E941303109256031092550342
:1011300010926203109284031092CB0381E080939B
:10114000CA031092C50361E082E10E94C60261E019
:1011500083E10E94C6028091B9008E7F8093B9001E
:101160008091B9008D7F8093B90088E48093B800A6
:1011700085E48093BC0084E192E09093CF02809359
:10118000CE0285E192E09093CD028093CC020E9442
:10119000A70790E0880F892F881F990B892B09F4E6
:1011A000E4C08CE291E00E94D2064BE050E063ED97
:1011B00070E0CE0101960E94E20CCE010A960E94D8
:1011C0007E0C082FE9814E2FEE0F550B660B770B27
:1011D000FA01E154F109E331F10538F5EC5CFF4F18
:1011E0000C945E0D12E021C08A81813629F08B813A
:1011F0008E3621F017E019C011E017C016E015C0B7
:101200008B81823711F018E010C014E00EC08B8182
:10121000823711F015E009C013E007C019E005C0DE
:101220001AE003C01BE001C01CE0CE0105960E943D
:101230007E0CC82E48E050E06AEC70E0CE010196CA
:101240000E94E20CCE0101960E947E0CB82ECE01C7
:1012500004960E947E0CA82ECE0107960E947E0C5A
:10126000982EDD24D394D092610328E6E22EE092FA
:101270008303109262031092840360E089E694E095
:101280000E946F023AE0F32E892D6F2D0E94300DDF
:10129000682F660F860F880F682F690D89E694E026
:1012A0000E946F028A2D6F2D0E94300D682F660FED
:1012B000860F880F682F6A0D89E694E00E946F02FE
:1012C0008B2D6F2D0E94300D682F660F860F880FB3
:1012D000682F6B0D89E694E00E946F0260E089E65A
:1012E00094E00E946F028C2D6F2D0E94300D682FAC
:1012F000660F860F880F682F6C0D89E694E00E94B8
:101300006F02812F6F2D0E94300D682F660F680FBE
:10131000660F610F89E694E00E946F02802F6F2DA7
:101320000E94300D682F660F680F660F600F89E608
:1013300094E00E946F020E9420070E94A707182FC6
:10134000D0926103E09283031092620310928403AF
:101350006FE089E694E00E946F02612F6F7789E663
:1013600094E00E946F020E9420070E94C8058091AD
:10137000D6020E9497070E949105FF24F3946E0104
:101380008BE5C80ED11C80910C03882309F47DC025
:1013900080910B03882309F476C08091DA029FEFD5
:1013A000980F9A3008F069C000916003809F800117
:1013B00011249AEDA92E92E0B92E4801E9E08E0E93
:1013C000911C3801F501E1905F01C3010E941A0DE3
:1013D000E81621F06E2DC3010E94220DFFEF6F1A57
:1013E0007F0A8614970471F768EC70E080E090E063
:1013F0000E941303BE016F5F7F4FC8010E94520518
:1014000068EC70E080E090E00E9413030E94CE063A
:101410008FE491E00E948F07C8010E94910787E640
:1014200091E00E948F0789810E947C078EE791E0FE
:101430000E948F078E810E947C078BE192E00E94C0
:101440008F078F810E947C078BE192E00E948F07BB
:10145000888599850E94910785E891E00E948F0711
:101460008C810E947C078BE192E00E948F078B8128
:101470000E9483078CE891E002C084E991E00E9419
:10148000D20610920B0310920C038CEC93E00E9496
:10149000A701892B09F4BBC183EEA82E82E0B82EE8
:1014A00000E010E02FB7F8948091D2029091D3021F
:1014B000A091D402B091D5022FBF8093D403909312
:1014C000D503A093D603B093D7038CEC93E00E948E
:1014D000850197FF25C02FB7F8948091D202909193
:1014E000D302A091D402B091D5022FBF4091D40372
:1014F0005091D5036091D6037091D703841B950B4F
:10150000A60BB70B4091D0035091D1036091D20349
:101510007091D30384179507A607B707B0F20CC0E4
:101520008A30910549F0F50181935F010F5F1F4FEC
:101530000832110509F0B6CFF801ED51FD4F1082C8
:101540006AEB71E083EE92E00E94690D892B09F04D
:1015500070C08AEB91E00E94D2061092D9021092DC
:10156000D8028E010F5F1F4F209160038091D80237
:101570009091D902820F911D9093D9028093D80245
:10158000B8010E94520568EC70E080E090E00E9493
:101590001303F801808181508A3018F083EC91E0C8
:1015A0006AC00E94CE068FE491E00E948F0780916E
:1015B000D8029091D9020E94910787E691E00E949B
:1015C0008F07F80180810E947C078EE791E00E94DE
:1015D0008F07F80185810E947C078BE192E00E94D1
:1015E0008F07F80186810E947C078BE192E00E94C0
:1015F0008F07F801878190850E94910785E891E027
:101600000E948F07F80183810E947C078BE192E0A2
:101610000E948F07F80182810E9483078CE891E085
:101620000E94D206075F1F4FC016D10609F09CCF5B
:1016300048C06EEC71E083EE92E00E94690D892B48
:1016400081F48EEC91E00E94D20600E010E060E0B0
:10165000C8010E94220D0F5F1F4F04361105B9F714
:1016600030C067ED71E083EE92E00E94690D892B36
:1016700029F487ED91E00E94D20623C06DED71E060
:1016800083EE92E00E94690D892B29F48DED91E0A3
:101690000E94D20614C064EE71E083EE92E00E94D4
:1016A000690D892B89F48AEE91E00E94D20610928E
:1016B000D6020E94C8058091D6020E9497070E9418
:1016C0009105F0920C03A3C0AE014F5F5F4F68EF2E
:1016D00071E083EE92E00E94EB0C4C01AE014F5F93
:1016E0005F4F68EF71E080E090E00E94EB0C5C01DE
:1016F000AE014F5F5F4F68EF71E080E090E00E94C5
:10170000EB0C8C01E981FA811082AE014F5F5F4FD3
:101710006CE771E0C4010E94EB0CAE014F5F5F4FBC
:101720006CE771E080E090E00E94EB0C0E94C40C3A
:101730008093DA02E981FA811082AE014F5F5F4F38
:101740006CE771E0C5010E94EB0CAE014F5F5F4F8B
:101750006BE172E080E090E00E94EB0C0E94C40C10
:101760008093DF02AE014F5F5F4F6BE172E080E07C
:1017700090E00E94EB0C0E94C40C8093E002AE014A
:101780004F5F5F4F6AEC72E080E090E00E94EB0CEC
:101790000E94C40C9093E2028093E102E981FA81F5
:1017A0001082AE014F5F5F4F6CE771E0C8010E948D
:1017B000EB0CAE014F5F5F4F6BE172E080E090E0B9
:1017C0000E94EB0C0E94C40C8093DD02AE014F5FBF
:1017D0005F4F6AEC72E080E090E00E94EB0C0E94A8
:1017E000C40C8093DC028091DA028A3008F04DCE7E
:1017F0008091E0028D3008F048CE8091DD02893181
:1018000008F043CEF0920C03F0920B033ECE809191
:10181000D702882309F46FC0CE0101960E94970376
:10182000898190E08053984F20915E0330915F034F
:1018300082179307B1F59A8180915D03981331C0A7
:101840009B8180915C0398132CC09C8180915A03EA
:10185000981327C09D8180915903981322C08AEF65
:1018600091E00E94D20661E083E00E94C60268E82F
:1018700073E180E090E00E94130360E083E00E9447
:10188000C60268E47EEE80E090E00E9413031092AE
:10189000D6020E94C8058091D6020E9497070E9436
:1018A00091050E94CE06898190E08053984F0E9456
:1018B00091078FE20E94C5078A810E947C078FE210
:1018C0000E94C5078B810E947C078AE30E94C5079E
:1018D0008C810E947C078AE30E94C5078D810E944B
:1018E0007C078AE30E94C5078E810E947C070E94C4
:1018F000CE061092D7020E94B30145CDFC01908123
:1019000090539A3008F090E0818180532AE0929FB2
:10191000800D11240895ECECF3E01382128288EE1E
:1019200093E0A0E0B0E084839583A683B78324E0AE
:1019300031E03183208325EC30E03587248724ECA7
:1019400030E03787268720EC30E0318B208B21EC8C
:1019500030E0338B228B22EC30E0358B248B26EC6D
:1019600030E0378B268B118E128E138E148EE9E6A3
:10197000F4E01382128284839583A683B78386E181
:1019800091E0918380830895FC0188279927E8944A
:1019900021912032E9F3293010F02E30C8F32B3298
:1019A00041F02D3239F4689404C00E94120D820F68
:1019B000911D219120532A30C0F31EF490958195FA
:1019C0009F4F0895FB01DC0102C005900D9241502C
:1019D0005040D8F70895FA01A191B081009719F409
:1019E0001097E1F0CD01DC01CD010D90002011F444
:1019F000C00113C0FB012191222319F02015D9F752
:101A0000F3CFFB012191201519F41E92119606C007
:101A10002223C1F70D900020A1F7D001FA01A19374
:101A2000B08308957AE0979F902D879F802D910D28
:101A300011240895F999FECF92BD81BDF89A992796
:101A400080B50895262FF999FECF1FBA92BD81BDAA
:101A500020BD0FB6F894FA9AF99A0FBE0196089530
:101A6000991B79E004C0991F961708F0961B881FF0
:101A70007A95C9F780950895A1E21A2EAA1BBB1B7F
:101A8000FD010DC0AA1FBB1FEE1FFF1FA217B3074A
:101A9000E407F50720F0A21BB30BE40BF50B661F60
:101AA000771F881F991F1A9469F760957095809524
:101AB00090959B01AC01BD01CF010895EE0FFF1F72
:101AC0000590F491E02D099481E090E0F8940C9455
:101AD000720DFB01DC018D91019080190110D9F389
:081AE000990B0895F894FFCF63
:101AE80000000000BE005106A5000B01A7018501FA
:101AF8009901000000006F0242029F0216023A029A
:101B08002602170277656C636F6D65005254432097
:101B18006C6F737420706F7765722C206C657473AA
:101B280020736574207468652074696D652100648C
:101B38006174612073746F726564206174206164DC
:101B480064726573733A00616E642073746F7265B2
:101B58006420646174612069732069643D002C64A9
:101B68006174653D002C74696D653D007375636330
:101B780065737300696E70757420636D6420697392
:101B88002077726F6E672F4944206973206F7574D0
:101B9800206F662072616E6765007072696E74618D
:101BA8006C6C006E6F207265636F72647300636C97
:101BB800656172616C6C0074696D653F0072656384
:101BC8006F726400656E74657200656E746572206C
:101BD80070726573736564002C006576656E742099
:101BE8007472696767657265640063757272656EA1
:101BF80074207265636F72642069733A006F6C6455
:101C0800207265636F726420627920796561720061
:101C18006F6C64207265636F7264206279206D6FE7
:101C28006E7468006F6C64207265636F7264206202
:101C38007920646179006F6C64207265636F7264E7
:101C480020627920686F7572006F6C64207265631A
:101C58006F7264206279206D696E757465006769BA
:101C680076656E207265636F726420697320736194
:101C78006D652061732072756E6E696E6720746978
:101C88006D65006E6F207265636F72647320706C8F
:101C98006561736520656E74657220736F6D65206C
:0C1CA8007265636F726473000D0A000027
:00000001FF
